{
  "_format": "hh-sol-artifact-1",
  "contractName": "DrugSupplyChain",
  "sourceName": "contracts/DrugSupplyChain.sol",
  "abi": [
    {
      "anonymous": false,
      "inputs": [
        {
          "indexed": false,
          "internalType": "uint256",
          "name": "id",
          "type": "uint256"
        },
        {
          "indexed": false,
          "internalType": "string",
          "name": "name",
          "type": "string"
        },
        {
          "indexed": false,
          "internalType": "address",
          "name": "manufacturer",
          "type": "address"
        }
      ],
      "name": "DrugAdded",
      "type": "event"
    },
    {
      "anonymous": false,
      "inputs": [
        {
          "indexed": false,
          "internalType": "uint256",
          "name": "id",
          "type": "uint256"
        },
        {
          "indexed": false,
          "internalType": "string",
          "name": "eventDetail",
          "type": "string"
        }
      ],
      "name": "HistoryUpdated",
      "type": "event"
    },
    {
      "inputs": [
        {
          "internalType": "uint256",
          "name": "_id",
          "type": "uint256"
        },
        {
          "internalType": "string",
          "name": "_name",
          "type": "string"
        }
      ],
      "name": "addDrug",
      "outputs": [],
      "stateMutability": "nonpayable",
      "type": "function"
    },
    {
      "inputs": [
        {
          "internalType": "uint256",
          "name": "",
          "type": "uint256"
        }
      ],
      "name": "drugs",
      "outputs": [
        {
          "internalType": "uint256",
          "name": "id",
          "type": "uint256"
        },
        {
          "internalType": "string",
          "name": "name",
          "type": "string"
        },
        {
          "internalType": "address",
          "name": "manufacturer",
          "type": "address"
        }
      ],
      "stateMutability": "view",
      "type": "function"
    },
    {
      "inputs": [
        {
          "internalType": "uint256",
          "name": "_id",
          "type": "uint256"
        }
      ],
      "name": "getDrug",
      "outputs": [
        {
          "internalType": "uint256",
          "name": "",
          "type": "uint256"
        },
        {
          "internalType": "string",
          "name": "",
          "type": "string"
        },
        {
          "internalType": "address",
          "name": "",
          "type": "address"
        },
        {
          "internalType": "string[]",
          "name": "",
          "type": "string[]"
        }
      ],
      "stateMutability": "view",
      "type": "function"
    },
    {
      "inputs": [
        {
          "internalType": "uint256",
          "name": "_id",
          "type": "uint256"
        }
      ],
      "name": "getHistory",
      "outputs": [
        {
          "internalType": "string[]",
          "name": "",
          "type": "string[]"
        }
      ],
      "stateMutability": "view",
      "type": "function"
    },
    {
      "inputs": [
        {
          "internalType": "uint256",
          "name": "_id",
          "type": "uint256"
        },
        {
          "internalType": "string",
          "name": "_event",
          "type": "string"
        }
      ],
      "name": "updateHistory",
      "outputs": [],
      "stateMutability": "nonpayable",
      "type": "function"
    }
  ],
  "bytecode": "0x6080604052348015600f57600080fd5b506110db8061001f6000396000f3fe608060405234801561001057600080fd5b50600436106100575760003560e01c8063b8840d3d1461005c578063c324b3fb1461008f578063c8691b2a146100ab578063d70518c7146100db578063fca5e61e146100f7575b600080fd5b61007660048036038101906100719190610862565b610129565b6040516100869493929190610a7b565b60405180910390f35b6100a960048036038101906100a49190610c03565b610341565b005b6100c560048036038101906100c09190610862565b61046a565b6040516100d29190610c5f565b60405180910390f35b6100f560048036038101906100f09190610c03565b610558565b005b610111600480360381019061010c9190610862565b610746565b60405161012093929190610c81565b60405180910390f35b600060606000606060008060008781526020019081526020016000206040518060800160405290816000820154815260200160018201805461016a90610cee565b80601f016020809104026020016040519081016040528092919081815260200182805461019690610cee565b80156101e35780601f106101b8576101008083540402835291602001916101e3565b820191906000526020600020905b8154815290600101906020018083116101c657829003601f168201915b505050505081526020016002820160009054906101000a900473ffffffffffffffffffffffffffffffffffffffff1673ffffffffffffffffffffffffffffffffffffffff1673ffffffffffffffffffffffffffffffffffffffff16815260200160038201805480602002602001604051908101604052809291908181526020016000905b8282101561031357838290600052602060002001805461028690610cee565b80601f01602080910402602001604051908101604052809291908181526020018280546102b290610cee565b80156102ff5780601f106102d4576101008083540402835291602001916102ff565b820191906000526020600020905b8154815290600101906020018083116102e257829003601f168201915b505050505081526020019060010190610267565b5050505081525050905080600001518160200151826040015183606001519450945094509450509193509193565b600073ffffffffffffffffffffffffffffffffffffffff1660008084815260200190815260200160002060020160009054906101000a900473ffffffffffffffffffffffffffffffffffffffff1673ffffffffffffffffffffffffffffffffffffffff16036103e5576040517f08c379a00000000000000000000000000000000000000000000000000000000081526004016103dc90610d6b565b60405180910390fd5b6000808381526020019081526020016000206003018190806001815401808255809150506001900390600052602060002001600090919091909150908161042c9190610f37565b507ff4d328043be3eff4eb67278e5a9ebdd16a62c34f7cf62336322856b782bc1201828260405161045e929190611009565b60405180910390a15050565b6060600080838152602001908152602001600020600301805480602002602001604051908101604052809291908181526020016000905b8282101561054d5783829060005260206000200180546104c090610cee565b80601f01602080910402602001604051908101604052809291908181526020018280546104ec90610cee565b80156105395780601f1061050e57610100808354040283529160200191610539565b820191906000526020600020905b81548152906001019060200180831161051c57829003601f168201915b5050505050815260200190600101906104a1565b505050509050919050565b600073ffffffffffffffffffffffffffffffffffffffff1660008084815260200190815260200160002060020160009054906101000a900473ffffffffffffffffffffffffffffffffffffffff1673ffffffffffffffffffffffffffffffffffffffff16146105fc576040517f08c379a00000000000000000000000000000000000000000000000000000000081526004016105f390611085565b60405180910390fd5b81600080848152602001908152602001600020600001819055508060008084815260200190815260200160002060010190816106389190610f37565b503360008084815260200190815260200160002060020160006101000a81548173ffffffffffffffffffffffffffffffffffffffff021916908373ffffffffffffffffffffffffffffffffffffffff16021790555060008083815260200190815260200160002060030180600181540180825580915050600190039060005260206000200160006040518060400160405280601c81526020017f447275672043726561746564206279204d616e75666163747572657200000000815250909190915090816107069190610f37565b507f4979f09b2dcaf3692df855362ea75520cda914a7704bf757e5441f047201361682823360405161073a93929190610c81565b60405180910390a15050565b600060205280600052604060002060009150905080600001549080600101805461076f90610cee565b80601f016020809104026020016040519081016040528092919081815260200182805461079b90610cee565b80156107e85780601f106107bd576101008083540402835291602001916107e8565b820191906000526020600020905b8154815290600101906020018083116107cb57829003601f168201915b5050505050908060020160009054906101000a900473ffffffffffffffffffffffffffffffffffffffff16905083565b6000604051905090565b600080fd5b600080fd5b6000819050919050565b61083f8161082c565b811461084a57600080fd5b50565b60008135905061085c81610836565b92915050565b60006020828403121561087857610877610822565b5b60006108868482850161084d565b91505092915050565b6108988161082c565b82525050565b600081519050919050565b600082825260208201905092915050565b60005b838110156108d85780820151818401526020810190506108bd565b60008484015250505050565b6000601f19601f8301169050919050565b60006109008261089e565b61090a81856108a9565b935061091a8185602086016108ba565b610923816108e4565b840191505092915050565b600073ffffffffffffffffffffffffffffffffffffffff82169050919050565b60006109598261092e565b9050919050565b6109698161094e565b82525050565b600081519050919050565b600082825260208201905092915050565b6000819050602082019050919050565b600082825260208201905092915050565b60006109b78261089e565b6109c1818561099b565b93506109d18185602086016108ba565b6109da816108e4565b840191505092915050565b60006109f183836109ac565b905092915050565b6000602082019050919050565b6000610a118261096f565b610a1b818561097a565b935083602082028501610a2d8561098b565b8060005b85811015610a695784840389528151610a4a85826109e5565b9450610a55836109f9565b925060208a01995050600181019050610a31565b50829750879550505050505092915050565b6000608082019050610a90600083018761088f565b8181036020830152610aa281866108f5565b9050610ab16040830185610960565b8181036060830152610ac38184610a06565b905095945050505050565b600080fd5b600080fd5b7f4e487b7100000000000000000000000000000000000000000000000000000000600052604160045260246000fd5b610b10826108e4565b810181811067ffffffffffffffff82111715610b2f57610b2e610ad8565b5b80604052505050565b6000610b42610818565b9050610b4e8282610b07565b919050565b600067ffffffffffffffff821115610b6e57610b6d610ad8565b5b610b77826108e4565b9050602081019050919050565b82818337600083830152505050565b6000610ba6610ba184610b53565b610b38565b905082815260208101848484011115610bc257610bc1610ad3565b5b610bcd848285610b84565b509392505050565b600082601f830112610bea57610be9610ace565b5b8135610bfa848260208601610b93565b91505092915050565b60008060408385031215610c1a57610c19610822565b5b6000610c288582860161084d565b925050602083013567ffffffffffffffff811115610c4957610c48610827565b5b610c5585828601610bd5565b9150509250929050565b60006020820190508181036000830152610c798184610a06565b905092915050565b6000606082019050610c96600083018661088f565b8181036020830152610ca881856108f5565b9050610cb76040830184610960565b949350505050565b7f4e487b7100000000000000000000000000000000000000000000000000000000600052602260045260246000fd5b60006002820490506001821680610d0657607f821691505b602082108103610d1957610d18610cbf565b5b50919050565b7f44727567206e6f7420666f756e64000000000000000000000000000000000000600082015250565b6000610d55600e836108a9565b9150610d6082610d1f565b602082019050919050565b60006020820190508181036000830152610d8481610d48565b9050919050565b60008190508160005260206000209050919050565b60006020601f8301049050919050565b600082821b905092915050565b600060088302610ded7fffffffffffffffffffffffffffffffffffffffffffffffffffffffffffffffff82610db0565b610df78683610db0565b95508019841693508086168417925050509392505050565b6000819050919050565b6000610e34610e2f610e2a8461082c565b610e0f565b61082c565b9050919050565b6000819050919050565b610e4e83610e19565b610e62610e5a82610e3b565b848454610dbd565b825550505050565b600090565b610e77610e6a565b610e82818484610e45565b505050565b5b81811015610ea657610e9b600082610e6f565b600181019050610e88565b5050565b601f821115610eeb57610ebc81610d8b565b610ec584610da0565b81016020851015610ed4578190505b610ee8610ee085610da0565b830182610e87565b50505b505050565b600082821c905092915050565b6000610f0e60001984600802610ef0565b1980831691505092915050565b6000610f278383610efd565b9150826002028217905092915050565b610f408261089e565b67ffffffffffffffff811115610f5957610f58610ad8565b5b610f638254610cee565b610f6e828285610eaa565b600060209050601f831160018114610fa15760008415610f8f578287015190505b610f998582610f1b565b865550611001565b601f198416610faf86610d8b565b60005b82811015610fd757848901518255600182019150602085019450602081019050610fb2565b86831015610ff45784890151610ff0601f891682610efd565b8355505b6001600288020188555050505b505050505050565b600060408201905061101e600083018561088f565b818103602083015261103081846108f5565b90509392505050565b7f4472756720616c72656164792065786973747300000000000000000000000000600082015250565b600061106f6013836108a9565b915061107a82611039565b602082019050919050565b6000602082019050818103600083015261109e81611062565b905091905056fea2646970667358221220f7370406eb3df160d1041dbd2e59856dbb53b8d6654031816754b4d109fc1a2264736f6c634300081c0033",
  "linkReferences": {},
  "deployedLinkReferences": {}
}